{
  "contractName": "SportupResult",
  "abi": [
    {
      "constant": true,
      "inputs": [],
      "name": "tokenContract",
      "outputs": [
        {
          "name": "",
          "type": "address"
        }
      ],
      "payable": false,
      "stateMutability": "view",
      "type": "function"
    },
    {
      "inputs": [
        {
          "name": "_tokenContract",
          "type": "address"
        }
      ],
      "payable": false,
      "stateMutability": "nonpayable",
      "type": "constructor"
    },
    {
      "payable": true,
      "stateMutability": "payable",
      "type": "fallback"
    },
    {
      "anonymous": false,
      "inputs": [
        {
          "indexed": true,
          "name": "submitter",
          "type": "address"
        },
        {
          "indexed": false,
          "name": "result",
          "type": "uint8"
        },
        {
          "indexed": false,
          "name": "blockstack",
          "type": "string"
        }
      ],
      "name": "Submited",
      "type": "event"
    },
    {
      "anonymous": false,
      "inputs": [
        {
          "indexed": false,
          "name": "inviteid",
          "type": "string"
        }
      ],
      "name": "WinnerMatched",
      "type": "event"
    },
    {
      "anonymous": false,
      "inputs": [
        {
          "indexed": false,
          "name": "inviteid",
          "type": "string"
        }
      ],
      "name": "WinnerNotMatched",
      "type": "event"
    },
    {
      "constant": false,
      "inputs": [
        {
          "name": "result",
          "type": "uint8"
        },
        {
          "name": "blockstack",
          "type": "string"
        },
        {
          "name": "inviteid",
          "type": "string"
        }
      ],
      "name": "submit",
      "outputs": [],
      "payable": false,
      "stateMutability": "nonpayable",
      "type": "function"
    },
    {
      "constant": true,
      "inputs": [
        {
          "name": "inviteid",
          "type": "string"
        }
      ],
      "name": "get_number_of_submissions",
      "outputs": [
        {
          "name": "",
          "type": "uint256"
        }
      ],
      "payable": false,
      "stateMutability": "view",
      "type": "function"
    },
    {
      "constant": true,
      "inputs": [
        {
          "name": "inviteid",
          "type": "string"
        },
        {
          "name": "index",
          "type": "uint256"
        }
      ],
      "name": "get_submissions",
      "outputs": [
        {
          "name": "submitter",
          "type": "address"
        },
        {
          "name": "result",
          "type": "uint8"
        },
        {
          "name": "blockstack",
          "type": "string"
        }
      ],
      "payable": false,
      "stateMutability": "view",
      "type": "function"
    }
  ],
  "bytecode": "0x608060405234801561001057600080fd5b50604051602080610ed88339810180604052602081101561003057600080fd5b8101908080519060200190929190505050600160008190555080600160006101000a81548173ffffffffffffffffffffffffffffffffffffffff021916908373ffffffffffffffffffffffffffffffffffffffff16021790555050610e3e8061009a6000396000f3fe60806040526004361061003f5760003560e01c806355a373d614610041578063595807a81461009857806373a03c2f14610223578063c342c6cf1461038f575b005b34801561004d57600080fd5b5061005661046b565b604051808273ffffffffffffffffffffffffffffffffffffffff1673ffffffffffffffffffffffffffffffffffffffff16815260200191505060405180910390f35b3480156100a457600080fd5b50610168600480360360408110156100bb57600080fd5b81019080803590602001906401000000008111156100d857600080fd5b8201836020820111156100ea57600080fd5b8035906020019184600183028401116401000000008311171561010c57600080fd5b91908080601f016020809104026020016040519081016040528093929190818152602001838380828437600081840152601f19601f82011690508083019250505050505050919291929080359060200190929190505050610491565b604051808473ffffffffffffffffffffffffffffffffffffffff1673ffffffffffffffffffffffffffffffffffffffff1681526020018360ff1660ff16815260200180602001828103825283818151815260200191508051906020019080838360005b838110156101e65780820151818401526020810190506101cb565b50505050905090810190601f1680156102135780820380516001836020036101000a031916815260200191505b5094505050505060405180910390f35b34801561022f57600080fd5b5061038d6004803603606081101561024657600080fd5b81019080803560ff1690602001909291908035906020019064010000000081111561027057600080fd5b82018360208201111561028257600080fd5b803590602001918460018302840111640100000000831117156102a457600080fd5b91908080601f016020809104026020016040519081016040528093929190818152602001838380828437600081840152601f19601f8201169050808301925050505050505091929192908035906020019064010000000081111561030757600080fd5b82018360208201111561031957600080fd5b8035906020019184600183028401116401000000008311171561033b57600080fd5b91908080601f016020809104026020016040519081016040528093929190818152602001838380828437600081840152601f19601f8201169050808301925050505050505091929192905050506107de565b005b34801561039b57600080fd5b50610455600480360360208110156103b257600080fd5b81019080803590602001906401000000008111156103cf57600080fd5b8201836020820111156103e157600080fd5b8035906020019184600183028401116401000000008311171561040357600080fd5b91908080601f016020809104026020016040519081016040528093929190818152602001838380828437600081840152601f19601f820116905080830192505050505050509192919290505050610cf7565b6040518082815260200191505060405180910390f35b600160009054906101000a900473ffffffffffffffffffffffffffffffffffffffff1681565b6000806060836002866040518082805190602001908083835b602083106104cd57805182526020820191506020810190506020830392506104aa565b6001836020036101000a03801982511681845116808217855250505050505090500191505090815260200160405180910390208054905011610577576040517f08c379a000000000000000000000000000000000000000000000000000000000815260040180806020018281038252600d8152602001807f696e76616c696420696e6465780000000000000000000000000000000000000081525060200191505060405180910390fd5b6002856040518082805190602001908083835b602083106105ad578051825260208201915060208101905060208303925061058a565b6001836020036101000a038019825116818451168082178552505050505050905001915050908152602001604051809103902084815481106105eb57fe5b906000526020600020906002020160000160009054906101000a900473ffffffffffffffffffffffffffffffffffffffff166002866040518082805190602001908083835b602083106106535780518252602082019150602081019050602083039250610630565b6001836020036101000a0380198251168184511680821785525050505050509050019150509081526020016040518091039020858154811061069157fe5b906000526020600020906002020160000160149054906101000a900460ff166002876040518082805190602001908083835b602083106106e657805182526020820191506020810190506020830392506106c3565b6001836020036101000a0380198251168184511680821785525050505050509050019150509081526020016040518091039020868154811061072457fe5b9060005260206000209060020201600101808054600181600116156101000203166002900480601f0160208091040260200160405190810160405280929190818152602001828054600181600116156101000203166002900480156107ca5780601f1061079f576101008083540402835291602001916107ca565b820191906000526020600020905b8154815290600101906020018083116107ad57829003601f168201915b505050505090509250925092509250925092565b60016107e982610cf7565b111561085d576040517f08c379a000000000000000000000000000000000000000000000000000000000815260040180806020018281038252601a8152602001807f63616e206e6f74207375626d6974206d6f7265207468616e203200000000000081525060200191505060405180910390fd5b6002816040518082805190602001908083835b602083106108935780518252602082019150602081019050602083039250610870565b6001836020036101000a038019825116818451168082178552505050505050905001915050908152602001604051809103902060405180606001604052803373ffffffffffffffffffffffffffffffffffffffff1681526020018560ff168152602001848152509080600181540180825580915050906001820390600052602060002090600202016000909192909190915060008201518160000160006101000a81548173ffffffffffffffffffffffffffffffffffffffff021916908373ffffffffffffffffffffffffffffffffffffffff16021790555060208201518160000160146101000a81548160ff021916908360ff16021790555060408201518160010190805190602001906109a9929190610d6d565b505050503373ffffffffffffffffffffffffffffffffffffffff167fbb35c46ff7ece5a46ec58f69c43293bcad9db50049406784b792c601a71568ff8484604051808360ff1660ff16815260200180602001828103825283818151815260200191508051906020019080838360005b83811015610a33578082015181840152602081019050610a18565b50505050905090810190601f168015610a605780820380516001836020036101000a031916815260200191505b50935050505060405180910390a26002610a7982610cf7565b1415610cf2576002816040518082805190602001908083835b60208310610ab55780518252602082019150602081019050602083039250610a92565b6001836020036101000a0380198251168184511680821785525050505050509050019150509081526020016040518091039020600181548110610af457fe5b906000526020600020906002020160000160149054906101000a900460ff1660ff166002826040518082805190602001908083835b60208310610b4c5780518252602082019150602081019050602083039250610b29565b6001836020036101000a0380198251168184511680821785525050505050509050019150509081526020016040518091039020600081548110610b8b57fe5b906000526020600020906002020160000160149054906101000a900460ff1660ff161415610c54577f58328fe4021b3c8bb896fa3a1c8b5516e7985985b30b8195112987ddec77df70816040518080602001828103825283818151815260200191508051906020019080838360005b83811015610c15578082015181840152602081019050610bfa565b50505050905090810190601f168015610c425780820380516001836020036101000a031916815260200191505b509250505060405180910390a1610cf1565b7fa08ec646d230e3e0cc258cbc9409da3d22e54fb3de7237615597d90cd22fe9c6816040518080602001828103825283818151815260200191508051906020019080838360005b83811015610cb6578082015181840152602081019050610c9b565b50505050905090810190601f168015610ce35780820380516001836020036101000a031916815260200191505b509250505060405180910390a15b5b505050565b60006002826040518082805190602001908083835b60208310610d2f5780518252602082019150602081019050602083039250610d0c565b6001836020036101000a0380198251168184511680821785525050505050509050019150509081526020016040518091039020805490509050919050565b828054600181600116156101000203166002900490600052602060002090601f016020900481019282601f10610dae57805160ff1916838001178555610ddc565b82800160010185558215610ddc579182015b82811115610ddb578251825591602001919060010190610dc0565b5b509050610de99190610ded565b5090565b610e0f91905b80821115610e0b576000816000905550600101610df3565b5090565b9056fea165627a7a723058202cd812ec1dba81652e9727377049c23f5f72bd85cc39de4ee5fe84e7a8fe92610029",
  "source": "pragma solidity ^0.5.0;\r\n\r\nimport \"./SportupToken.sol\";\r\nimport \"../node_modules/openzeppelin/contracts/math/SafeMath.sol\"; \r\nimport \"../node_modules/openzeppelin/contracts/utils/ReentrancyGuard.sol\";\r\n\r\n\r\ncontract SportupResult is ReentrancyGuard {\r\n    using SafeMath for uint256;\r\n    SportupToken public tokenContract;\r\n\r\n    struct  submitted_result {\r\n        address submitter;\r\n        uint8 result;//winner\r\n        string blockstack;\r\n    }\r\n\r\n    mapping (string => submitted_result[] )private invites;\r\n\r\n\r\n\r\n    // The token being sold\r\n    //IERC20 private _token;\r\n\r\n   \r\n  //  constructor (uint256 rate, address payable wallet, IERC20 token) public {\r\n       constructor(SportupToken _tokenContract) public{\r\n          tokenContract=_tokenContract;\r\n    }\r\n\r\n    /**\r\n     * @dev fallback function ***DO NOT OVERRIDE***\r\n     * Note that other contracts will transfer funds with a base gas stipend\r\n     * of 2300, which is not enough to call buyTokens. Consider calling\r\n     * buyTokens directly when purchasing tokens from a contract.\r\n     */\r\n    function () external payable {\r\n       // buyTokens(msg.sender);\r\n    }\r\n    event Submited(address indexed submitter,uint8 result, string  blockstack );\r\n     event WinnerMatched( string inviteid );\r\n       event WinnerNotMatched( string inviteid );\r\n     function submit( uint8 result,string memory blockstack,  string memory inviteid) public    {\r\n            require (get_number_of_submissions(inviteid)<=1,\"can not submit more than 2\") ;  \r\n\r\n                    invites[inviteid].push(submitted_result(msg.sender,result,blockstack));\r\n                   emit  Submited(msg.sender,result,blockstack);\r\n                if (get_number_of_submissions(inviteid)==2){\r\n                    if( invites[inviteid][0].result== invites[inviteid][1].result){\r\nemit WinnerMatched(inviteid);\r\n                    }else{\r\nemit WinnerNotMatched(inviteid);\r\n                    }\r\n                }    \r\n\r\n        }\r\n\r\n        function get_number_of_submissions(  string memory inviteid) public  view returns( uint256    ){\r\n            return  invites[inviteid].length;\r\n        }\r\n   function get_submissions(  string memory inviteid,uint256 index) public  view returns( address submitter,   uint8 result,string memory blockstack   ){\r\n             require (  invites[inviteid].length > index,\"invalid index\");\r\n            return ( invites[inviteid][index].submitter,invites[inviteid][index].result,invites[inviteid][index].blockstack);\r\n        }\r\n \r\n  \r\n}\r\n",
  "sourcePath": "d:/sportup-token/contracts/SportupResult.sol",
  "compiler": {
    "name": "solc",
    "version": "0.5.8+commit.23d335f2.Emscripten.clang"
  },
  "schemaVersion": "3.0.16",
  "updatedAt": "2019-10-29T11:36:12.849Z",
  "devdoc": {
    "methods": {}
  },
  "userdoc": {
    "methods": {}
  }
}