{
  "contractName": "SportupResult",
  "abi": [
    {
      "constant": false,
      "inputs": [],
      "name": "unpause",
      "outputs": [],
      "payable": false,
      "stateMutability": "nonpayable",
      "type": "function"
    },
    {
      "constant": true,
      "inputs": [
        {
          "name": "account",
          "type": "address"
        }
      ],
      "name": "isPauser",
      "outputs": [
        {
          "name": "",
          "type": "bool"
        }
      ],
      "payable": false,
      "stateMutability": "view",
      "type": "function"
    },
    {
      "constant": true,
      "inputs": [],
      "name": "tokenContract",
      "outputs": [
        {
          "name": "",
          "type": "address"
        }
      ],
      "payable": false,
      "stateMutability": "view",
      "type": "function"
    },
    {
      "constant": true,
      "inputs": [],
      "name": "paused",
      "outputs": [
        {
          "name": "",
          "type": "bool"
        }
      ],
      "payable": false,
      "stateMutability": "view",
      "type": "function"
    },
    {
      "constant": false,
      "inputs": [],
      "name": "renouncePauser",
      "outputs": [],
      "payable": false,
      "stateMutability": "nonpayable",
      "type": "function"
    },
    {
      "constant": false,
      "inputs": [
        {
          "name": "account",
          "type": "address"
        }
      ],
      "name": "addPauser",
      "outputs": [],
      "payable": false,
      "stateMutability": "nonpayable",
      "type": "function"
    },
    {
      "constant": false,
      "inputs": [],
      "name": "pause",
      "outputs": [],
      "payable": false,
      "stateMutability": "nonpayable",
      "type": "function"
    },
    {
      "inputs": [
        {
          "name": "_tokenContract",
          "type": "address"
        }
      ],
      "payable": false,
      "stateMutability": "nonpayable",
      "type": "constructor"
    },
    {
      "payable": true,
      "stateMutability": "payable",
      "type": "fallback"
    },
    {
      "anonymous": false,
      "inputs": [
        {
          "indexed": true,
          "name": "submitter",
          "type": "address"
        },
        {
          "indexed": false,
          "name": "result",
          "type": "uint8"
        },
        {
          "indexed": false,
          "name": "blockstack",
          "type": "string"
        }
      ],
      "name": "Submited",
      "type": "event"
    },
    {
      "anonymous": false,
      "inputs": [
        {
          "indexed": false,
          "name": "inviteid",
          "type": "string"
        }
      ],
      "name": "WinnerMatched",
      "type": "event"
    },
    {
      "anonymous": false,
      "inputs": [
        {
          "indexed": false,
          "name": "inviteid",
          "type": "string"
        }
      ],
      "name": "WinnerNotMatched",
      "type": "event"
    },
    {
      "anonymous": false,
      "inputs": [
        {
          "indexed": true,
          "name": "changer",
          "type": "address"
        },
        {
          "indexed": false,
          "name": "newRatio",
          "type": "uint256"
        }
      ],
      "name": "RewardRatioChanged",
      "type": "event"
    },
    {
      "anonymous": false,
      "inputs": [
        {
          "indexed": false,
          "name": "account",
          "type": "address"
        }
      ],
      "name": "Paused",
      "type": "event"
    },
    {
      "anonymous": false,
      "inputs": [
        {
          "indexed": false,
          "name": "account",
          "type": "address"
        }
      ],
      "name": "Unpaused",
      "type": "event"
    },
    {
      "anonymous": false,
      "inputs": [
        {
          "indexed": true,
          "name": "account",
          "type": "address"
        }
      ],
      "name": "PauserAdded",
      "type": "event"
    },
    {
      "anonymous": false,
      "inputs": [
        {
          "indexed": true,
          "name": "account",
          "type": "address"
        }
      ],
      "name": "PauserRemoved",
      "type": "event"
    },
    {
      "constant": false,
      "inputs": [
        {
          "name": "_newRatio",
          "type": "uint256"
        }
      ],
      "name": "setRewardRatio",
      "outputs": [],
      "payable": false,
      "stateMutability": "nonpayable",
      "type": "function"
    },
    {
      "constant": true,
      "inputs": [],
      "name": "getRewardRatio",
      "outputs": [
        {
          "name": "",
          "type": "uint256"
        }
      ],
      "payable": false,
      "stateMutability": "view",
      "type": "function"
    },
    {
      "constant": false,
      "inputs": [
        {
          "name": "result",
          "type": "uint8"
        },
        {
          "name": "blockstack",
          "type": "string"
        },
        {
          "name": "inviteid",
          "type": "string"
        }
      ],
      "name": "submit",
      "outputs": [],
      "payable": false,
      "stateMutability": "nonpayable",
      "type": "function"
    },
    {
      "constant": true,
      "inputs": [
        {
          "name": "inviteid",
          "type": "string"
        }
      ],
      "name": "get_number_of_submissions",
      "outputs": [
        {
          "name": "",
          "type": "uint256"
        }
      ],
      "payable": false,
      "stateMutability": "view",
      "type": "function"
    },
    {
      "constant": true,
      "inputs": [
        {
          "name": "inviteid",
          "type": "string"
        },
        {
          "name": "index",
          "type": "uint256"
        }
      ],
      "name": "get_submissions",
      "outputs": [
        {
          "name": "submitter",
          "type": "address"
        },
        {
          "name": "result",
          "type": "uint8"
        },
        {
          "name": "blockstack",
          "type": "string"
        }
      ],
      "payable": false,
      "stateMutability": "view",
      "type": "function"
    }
  ],
  "bytecode": "0x60806040523480156200001157600080fd5b5060405160208062002554833981018060405260208110156200003357600080fd5b810190808051906020019092919050505060016000819055506200005d33620001fc60201b60201c565b6000600260006101000a81548160ff02191690831515021790555033600460006101000a81548173ffffffffffffffffffffffffffffffffffffffff021916908373ffffffffffffffffffffffffffffffffffffffff16021790555080600260016101000a81548173ffffffffffffffffffffffffffffffffffffffff021916908373ffffffffffffffffffffffffffffffffffffffff160217905550612710600381905550600260019054906101000a900473ffffffffffffffffffffffffffffffffffffffff1673ffffffffffffffffffffffffffffffffffffffff1663095ea7b3336012600a0a633b9aca00026040518363ffffffff1660e01b8152600401808373ffffffffffffffffffffffffffffffffffffffff1673ffffffffffffffffffffffffffffffffffffffff16815260200182815260200192505050602060405180830381600087803b158015620001b757600080fd5b505af1158015620001cc573d6000803e3d6000fd5b505050506040513d6020811015620001e357600080fd5b8101908080519060200190929190505050505062000421565b620002178160016200025d60201b62001ebd1790919060201c565b8073ffffffffffffffffffffffffffffffffffffffff167f6719d08c1888103bea251a4ed56406bd0c3e69723c8a1686e017e7bbe159b6f860405160405180910390a250565b6200026f82826200034160201b60201c565b15620002e3576040517f08c379a000000000000000000000000000000000000000000000000000000000815260040180806020018281038252601f8152602001807f526f6c65733a206163636f756e7420616c72656164792068617320726f6c650081525060200191505060405180910390fd5b60018260000160008373ffffffffffffffffffffffffffffffffffffffff1673ffffffffffffffffffffffffffffffffffffffff16815260200190815260200160002060006101000a81548160ff0219169083151502179055505050565b60008073ffffffffffffffffffffffffffffffffffffffff168273ffffffffffffffffffffffffffffffffffffffff161415620003ca576040517f08c379a0000000000000000000000000000000000000000000000000000000008152600401808060200182810382526022815260200180620025326022913960400191505060405180910390fd5b8260000160008373ffffffffffffffffffffffffffffffffffffffff1673ffffffffffffffffffffffffffffffffffffffff16815260200190815260200160002060009054906101000a900460ff16905092915050565b61210180620004316000396000f3fe6080604052600436106100a75760003560e01c806373a03c2f1161006457806373a03c2f1461035157806382dc1ec4146104bd5780638456cb591461050e57806397e1b4bc14610525578063a943600d14610550578063c342c6cf1461058b576100a7565b80633f4ba83a146100a957806346fbf68e146100c057806355a373d614610129578063595807a8146101805780635c975abb1461030b5780636ef8d66d1461033a575b005b3480156100b557600080fd5b506100be610667565b005b3480156100cc57600080fd5b5061010f600480360360208110156100e357600080fd5b81019080803573ffffffffffffffffffffffffffffffffffffffff1690602001909291905050506107c7565b604051808215151515815260200191505060405180910390f35b34801561013557600080fd5b5061013e6107e4565b604051808273ffffffffffffffffffffffffffffffffffffffff1673ffffffffffffffffffffffffffffffffffffffff16815260200191505060405180910390f35b34801561018c57600080fd5b50610250600480360360408110156101a357600080fd5b81019080803590602001906401000000008111156101c057600080fd5b8201836020820111156101d257600080fd5b803590602001918460018302840111640100000000831117156101f457600080fd5b91908080601f016020809104026020016040519081016040528093929190818152602001838380828437600081840152601f19601f8201169050808301925050505050505091929192908035906020019092919050505061080a565b604051808473ffffffffffffffffffffffffffffffffffffffff1673ffffffffffffffffffffffffffffffffffffffff1681526020018360ff1660ff16815260200180602001828103825283818151815260200191508051906020019080838360005b838110156102ce5780820151818401526020810190506102b3565b50505050905090810190601f1680156102fb5780820380516001836020036101000a031916815260200191505b5094505050505060405180910390f35b34801561031757600080fd5b50610320610bda565b604051808215151515815260200191505060405180910390f35b34801561034657600080fd5b5061034f610bf1565b005b34801561035d57600080fd5b506104bb6004803603606081101561037457600080fd5b81019080803560ff1690602001909291908035906020019064010000000081111561039e57600080fd5b8201836020820111156103b057600080fd5b803590602001918460018302840111640100000000831117156103d257600080fd5b91908080601f016020809104026020016040519081016040528093929190818152602001838380828437600081840152601f19601f8201169050808301925050505050505091929192908035906020019064010000000081111561043557600080fd5b82018360208201111561044757600080fd5b8035906020019184600183028401116401000000008311171561046957600080fd5b91908080601f016020809104026020016040519081016040528093929190818152602001838380828437600081840152601f19601f820116905080830192505050505050509192919290505050610bfc565b005b3480156104c957600080fd5b5061050c600480360360208110156104e057600080fd5b81019080803573ffffffffffffffffffffffffffffffffffffffff169060200190929190505050611600565b005b34801561051a57600080fd5b5061052361166a565b005b34801561053157600080fd5b5061053a6117cb565b6040518082815260200191505060405180910390f35b34801561055c57600080fd5b506105896004803603602081101561057357600080fd5b81019080803590602001909291905050506117d5565b005b34801561059757600080fd5b50610651600480360360208110156105ae57600080fd5b81019080803590602001906401000000008111156105cb57600080fd5b8201836020820111156105dd57600080fd5b803590602001918460018302840111640100000000831117156105ff57600080fd5b91908080601f016020809104026020016040519081016040528093929190818152602001838380828437600081840152601f19601f820116905080830192505050505050509192919290505050611968565b6040518082815260200191505060405180910390f35b610670336107c7565b6106c5576040517f08c379a00000000000000000000000000000000000000000000000000000000081526004018080602001828103825260308152602001806120636030913960400191505060405180910390fd5b600260009054906101000a900460ff16610747576040517f08c379a00000000000000000000000000000000000000000000000000000000081526004018080602001828103825260148152602001807f5061757361626c653a206e6f742070617573656400000000000000000000000081525060200191505060405180910390fd5b6000600260006101000a81548160ff0219169083151502179055507f5db9ee0a495bf2e6ff9c91a7834c1ba4fdd244a5e8aa4e537bd38aeae4b073aa33604051808273ffffffffffffffffffffffffffffffffffffffff1673ffffffffffffffffffffffffffffffffffffffff16815260200191505060405180910390a1565b60006107dd826001611a6190919063ffffffff16565b9050919050565b600260019054906101000a900473ffffffffffffffffffffffffffffffffffffffff1681565b6000806060600260009054906101000a900460ff1615610892576040517f08c379a00000000000000000000000000000000000000000000000000000000081526004018080602001828103825260108152602001807f5061757361626c653a207061757365640000000000000000000000000000000081525060200191505060405180910390fd5b836005866040518082805190602001908083835b602083106108c957805182526020820191506020810190506020830392506108a6565b6001836020036101000a03801982511681845116808217855250505050505090500191505090815260200160405180910390208054905011610973576040517f08c379a000000000000000000000000000000000000000000000000000000000815260040180806020018281038252600d8152602001807f696e76616c696420696e6465780000000000000000000000000000000000000081525060200191505060405180910390fd5b6005856040518082805190602001908083835b602083106109a95780518252602082019150602081019050602083039250610986565b6001836020036101000a038019825116818451168082178552505050505050905001915050908152602001604051809103902084815481106109e757fe5b906000526020600020906002020160000160009054906101000a900473ffffffffffffffffffffffffffffffffffffffff166005866040518082805190602001908083835b60208310610a4f5780518252602082019150602081019050602083039250610a2c565b6001836020036101000a03801982511681845116808217855250505050505090500191505090815260200160405180910390208581548110610a8d57fe5b906000526020600020906002020160000160149054906101000a900460ff166005876040518082805190602001908083835b60208310610ae25780518252602082019150602081019050602083039250610abf565b6001836020036101000a03801982511681845116808217855250505050505090500191505090815260200160405180910390208681548110610b2057fe5b9060005260206000209060020201600101808054600181600116156101000203166002900480601f016020809104026020016040519081016040528092919081815260200182805460018160011615610100020316600290048015610bc65780601f10610b9b57610100808354040283529160200191610bc6565b820191906000526020600020905b815481529060010190602001808311610ba957829003601f168201915b505050505090509250925092509250925092565b6000600260009054906101000a900460ff16905090565b610bfa33611b3f565b565b600260009054906101000a900460ff1615610c7f576040517f08c379a00000000000000000000000000000000000000000000000000000000081526004018080602001828103825260108152602001807f5061757361626c653a207061757365640000000000000000000000000000000081525060200191505060405180910390fd5b6001610c8a82611968565b1115610cfe576040517f08c379a000000000000000000000000000000000000000000000000000000000815260040180806020018281038252601a8152602001807f63616e206e6f74207375626d6974206d6f7265207468616e203200000000000081525060200191505060405180910390fd5b610d083382611b99565b610d5d576040517f08c379a000000000000000000000000000000000000000000000000000000000815260040180806020018281038252602581526020018061203e6025913960400191505060405180910390fd5b6005816040518082805190602001908083835b60208310610d935780518252602082019150602081019050602083039250610d70565b6001836020036101000a038019825116818451168082178552505050505050905001915050908152602001604051809103902060405180606001604052803373ffffffffffffffffffffffffffffffffffffffff1681526020018560ff168152602001848152509080600181540180825580915050906001820390600052602060002090600202016000909192909190915060008201518160000160006101000a81548173ffffffffffffffffffffffffffffffffffffffff021916908373ffffffffffffffffffffffffffffffffffffffff16021790555060208201518160000160146101000a81548160ff021916908360ff1602179055506040820151816001019080519060200190610ea9929190611f98565b505050503373ffffffffffffffffffffffffffffffffffffffff167fbb35c46ff7ece5a46ec58f69c43293bcad9db50049406784b792c601a71568ff8484604051808360ff1660ff16815260200180602001828103825283818151815260200191508051906020019080838360005b83811015610f33578082015181840152602081019050610f18565b50505050905090810190601f168015610f605780820380516001836020036101000a031916815260200191505b50935050505060405180910390a26002610f7982611968565b14156115fb57600061106f600354600260019054906101000a900473ffffffffffffffffffffffffffffffffffffffff1673ffffffffffffffffffffffffffffffffffffffff166370a08231306040518263ffffffff1660e01b8152600401808273ffffffffffffffffffffffffffffffffffffffff1673ffffffffffffffffffffffffffffffffffffffff16815260200191505060206040518083038186803b15801561102657600080fd5b505afa15801561103a573d6000803e3d6000fd5b505050506040513d602081101561105057600080fd5b8101908080519060200190929190505050611d1790919063ffffffff16565b90506005826040518082805190602001908083835b602083106110a75780518252602082019150602081019050602083039250611084565b6001836020036101000a03801982511681845116808217855250505050505090500191505090815260200160405180910390206001815481106110e657fe5b906000526020600020906002020160000160149054906101000a900460ff1660ff166005836040518082805190602001908083835b6020831061113e578051825260208201915060208101905060208303925061111b565b6001836020036101000a038019825116818451168082178552505050505050905001915050908152602001604051809103902060008154811061117d57fe5b906000526020600020906002020160000160149054906101000a900460ff1660ff16141561155c57600260019054906101000a900473ffffffffffffffffffffffffffffffffffffffff1673ffffffffffffffffffffffffffffffffffffffff1663a9059cbb6005846040518082805190602001908083835b6020831061121957805182526020820191506020810190506020830392506111f6565b6001836020036101000a038019825116818451168082178552505050505050905001915050908152602001604051809103902060008154811061125857fe5b906000526020600020906002020160000160009054906101000a900473ffffffffffffffffffffffffffffffffffffffff16836040518363ffffffff1660e01b8152600401808373ffffffffffffffffffffffffffffffffffffffff1673ffffffffffffffffffffffffffffffffffffffff16815260200182815260200192505050602060405180830381600087803b1580156112f457600080fd5b505af1158015611308573d6000803e3d6000fd5b505050506040513d602081101561131e57600080fd5b810190808051906020019092919050505050600260019054906101000a900473ffffffffffffffffffffffffffffffffffffffff1673ffffffffffffffffffffffffffffffffffffffff1663a9059cbb6005846040518082805190602001908083835b602083106113a45780518252602082019150602081019050602083039250611381565b6001836020036101000a03801982511681845116808217855250505050505090500191505090815260200160405180910390206001815481106113e357fe5b906000526020600020906002020160000160009054906101000a900473ffffffffffffffffffffffffffffffffffffffff16836040518363ffffffff1660e01b8152600401808373ffffffffffffffffffffffffffffffffffffffff1673ffffffffffffffffffffffffffffffffffffffff16815260200182815260200192505050602060405180830381600087803b15801561147f57600080fd5b505af1158015611493573d6000803e3d6000fd5b505050506040513d60208110156114a957600080fd5b8101908080519060200190929190505050507f58328fe4021b3c8bb896fa3a1c8b5516e7985985b30b8195112987ddec77df70826040518080602001828103825283818151815260200191508051906020019080838360005b8381101561151d578082015181840152602081019050611502565b50505050905090810190601f16801561154a5780820380516001836020036101000a031916815260200191505b509250505060405180910390a16115f9565b7fa08ec646d230e3e0cc258cbc9409da3d22e54fb3de7237615597d90cd22fe9c6826040518080602001828103825283818151815260200191508051906020019080838360005b838110156115be5780820151818401526020810190506115a3565b50505050905090810190601f1680156115eb5780820380516001836020036101000a031916815260200191505b509250505060405180910390a15b505b505050565b611609336107c7565b61165e576040517f08c379a00000000000000000000000000000000000000000000000000000000081526004018080602001828103825260308152602001806120636030913960400191505060405180910390fd5b61166781611da6565b50565b611673336107c7565b6116c8576040517f08c379a00000000000000000000000000000000000000000000000000000000081526004018080602001828103825260308152602001806120636030913960400191505060405180910390fd5b600260009054906101000a900460ff161561174b576040517f08c379a00000000000000000000000000000000000000000000000000000000081526004018080602001828103825260108152602001807f5061757361626c653a207061757365640000000000000000000000000000000081525060200191505060405180910390fd5b6001600260006101000a81548160ff0219169083151502179055507f62e78cea01bee320cd4e420270b5ea74000d11b0c9f74754ebdbfc544b05a25833604051808273ffffffffffffffffffffffffffffffffffffffff1673ffffffffffffffffffffffffffffffffffffffff16815260200191505060405180910390a1565b6000600354905090565b600460009054906101000a900473ffffffffffffffffffffffffffffffffffffffff1673ffffffffffffffffffffffffffffffffffffffff163373ffffffffffffffffffffffffffffffffffffffff1614611898576040517f08c379a000000000000000000000000000000000000000000000000000000000815260040180806020018281038252600a8152602001807f41646d696e206f6e6c790000000000000000000000000000000000000000000081525060200191505060405180910390fd5b600354811415611910576040517f08c379a00000000000000000000000000000000000000000000000000000000081526004018080602001828103825260188152602001807f747279696e6720746f207365742073616d6520726174696f000000000000000081525060200191505060405180910390fd5b806003819055503373ffffffffffffffffffffffffffffffffffffffff167f026742c8bcd6a31c2a334961528522291231502d8fbc59f9a05cb0a510a3ec48826040518082815260200191505060405180910390a250565b6000600260009054906101000a900460ff16156119ed576040517f08c379a00000000000000000000000000000000000000000000000000000000081526004018080602001828103825260108152602001807f5061757361626c653a207061757365640000000000000000000000000000000081525060200191505060405180910390fd5b6005826040518082805190602001908083835b60208310611a235780518252602082019150602081019050602083039250611a00565b6001836020036101000a0380198251168184511680821785525050505050509050019150509081526020016040518091039020805490509050919050565b60008073ffffffffffffffffffffffffffffffffffffffff168273ffffffffffffffffffffffffffffffffffffffff161415611ae8576040517f08c379a00000000000000000000000000000000000000000000000000000000081526004018080602001828103825260228152602001806120b46022913960400191505060405180910390fd5b8260000160008373ffffffffffffffffffffffffffffffffffffffff1673ffffffffffffffffffffffffffffffffffffffff16815260200190815260200160002060009054906101000a900460ff16905092915050565b611b53816001611e0090919063ffffffff16565b8073ffffffffffffffffffffffffffffffffffffffff167fcd265ebaf09df2871cc7bd4133404a235ba12eff2041bb89d9c714a2621c7c7e60405160405180910390a250565b6000600260009054906101000a900460ff1615611c1e576040517f08c379a00000000000000000000000000000000000000000000000000000000081526004018080602001828103825260108152602001807f5061757361626c653a207061757365640000000000000000000000000000000081525060200191505060405180910390fd5b6001611c2983611968565b1415611d0c578273ffffffffffffffffffffffffffffffffffffffff166005836040518082805190602001908083835b60208310611c7c5780518252602082019150602081019050602083039250611c59565b6001836020036101000a0380198251168184511680821785525050505050509050019150509081526020016040518091039020600081548110611cbb57fe5b906000526020600020906002020160000160009054906101000a900473ffffffffffffffffffffffffffffffffffffffff1673ffffffffffffffffffffffffffffffffffffffff1614159050611d11565b600190505b92915050565b6000808211611d8e576040517f08c379a000000000000000000000000000000000000000000000000000000000815260040180806020018281038252601a8152602001807f536166654d6174683a206469766973696f6e206279207a65726f00000000000081525060200191505060405180910390fd5b6000828481611d9957fe5b0490508091505092915050565b611dba816001611ebd90919063ffffffff16565b8073ffffffffffffffffffffffffffffffffffffffff167f6719d08c1888103bea251a4ed56406bd0c3e69723c8a1686e017e7bbe159b6f860405160405180910390a250565b611e0a8282611a61565b611e5f576040517f08c379a00000000000000000000000000000000000000000000000000000000081526004018080602001828103825260218152602001806120936021913960400191505060405180910390fd5b60008260000160008373ffffffffffffffffffffffffffffffffffffffff1673ffffffffffffffffffffffffffffffffffffffff16815260200190815260200160002060006101000a81548160ff0219169083151502179055505050565b611ec78282611a61565b15611f3a576040517f08c379a000000000000000000000000000000000000000000000000000000000815260040180806020018281038252601f8152602001807f526f6c65733a206163636f756e7420616c72656164792068617320726f6c650081525060200191505060405180910390fd5b60018260000160008373ffffffffffffffffffffffffffffffffffffffff1673ffffffffffffffffffffffffffffffffffffffff16815260200190815260200160002060006101000a81548160ff0219169083151502179055505050565b828054600181600116156101000203166002900490600052602060002090601f016020900481019282601f10611fd957805160ff1916838001178555612007565b82800160010185558215612007579182015b82811115612006578251825591602001919060010190611feb565b5b5090506120149190612018565b5090565b61203a91905b8082111561203657600081600090555060010161201e565b5090565b9056fe75736572207375626d697474656420726573756c74206f6620676976656e20696e76697465506175736572526f6c653a2063616c6c657220646f6573206e6f742068617665207468652050617573657220726f6c65526f6c65733a206163636f756e7420646f6573206e6f74206861766520726f6c65526f6c65733a206163636f756e7420697320746865207a65726f2061646472657373a165627a7a72305820f46663ddbfb4eba4d5021ef5d7504583a37859830ad863364dc34cb4915941610029526f6c65733a206163636f756e7420697320746865207a65726f2061646472657373",
  "source": "pragma solidity ^0.5.0;\r\nimport \"./SportupToken.sol\";\r\nimport \"../node_modules/openzeppelin/contracts/math/SafeMath.sol\"; \r\nimport \"../node_modules/openzeppelin/contracts/utils/ReentrancyGuard.sol\";\r\nimport \"../node_modules/openzeppelin/contracts/lifecycle/Pausable.sol\";\r\ncontract SportupResult is ReentrancyGuard , Pausable {\r\n    using SafeMath for uint256;\r\n    SportupToken public tokenContract;\r\n// TODO approve Admin to transfer tokens from contract \r\n// Pausable \r\n// Valide invites\r\n// valide player address\r\n\r\n    struct  submitted_result {\r\n        address submitter;\r\n        uint8 result;//winner\r\n        string blockstack;\r\n    }\r\n    uint256  private _reward_ratio ;\r\n\r\n    address private admin ;\r\n    \r\n\r\n    mapping (string => submitted_result[] )private invites;\r\nmodifier onlyOwner() {\r\n        require( msg.sender==admin, \"Admin only\");\r\n        _;\r\n    }\r\n    event Submited(address indexed submitter,uint8 result, string  blockstack );\r\n    event WinnerMatched( string inviteid );\r\n    event WinnerNotMatched( string inviteid );\r\n    event RewardRatioChanged(address indexed changer,uint256 newRatio);\r\n\r\n    // The token being sold\r\n    //IERC20 private _token;\r\nfunction setRewardRatio(uint256 _newRatio)  onlyOwner() public {\r\n    require(_newRatio != _reward_ratio,\"trying to set same ratio\");\r\n    _reward_ratio=_newRatio;\r\n    emit RewardRatioChanged(msg.sender,_newRatio);\r\n}\r\n   function getRewardRatio( )   public view returns (uint256){\r\n         return _reward_ratio;\r\n         }\r\n  //  constructor (uint256 rate, address payable wallet, IERC20 token) public {\r\n       constructor(SportupToken _tokenContract) public{\r\n\r\n\r\n           admin=msg.sender;\r\n          tokenContract=_tokenContract;\r\n          _reward_ratio=10000;\r\n           tokenContract.approve(msg.sender,(10 ** 9) * (10 ** uint256(18)));          \r\n    }\r\n\r\n    /**\r\n     * @dev fallback function ***DO NOT OVERRIDE***\r\n     * Note that other contracts will transfer funds with a base gas stipend\r\n     * of 2300, which is not enough to call buyTokens. Consider calling\r\n     * buyTokens directly when purchasing tokens from a contract.\r\n     */\r\n    function () external payable {\r\n       // buyTokens(msg.sender);\r\n    }\r\n    function allowSubmission (address submitter,string memory inviteid) whenNotPaused internal \r\n    returns(bool){\r\n       if (get_number_of_submissions(inviteid)==1){ return invites[inviteid][0].submitter != submitter;               } \r\n     return true;\r\n    }    \r\n     function submit( uint8 result,string memory blockstack,  string memory inviteid) whenNotPaused public \r\n        {\r\n                require (get_number_of_submissions(inviteid)<=1,\"can not submit more than 2\") ;\r\n                // check if current address submited a result before \r\n                require(allowSubmission(msg.sender,inviteid),\"user submitted result of given invite\");\r\n                    invites[inviteid].push(submitted_result(msg.sender,result,blockstack));\r\n                   emit  Submited(msg.sender,result,blockstack);\r\n                if (get_number_of_submissions(inviteid)==2){\r\n                    uint256 reward=tokenContract.balanceOf(address(this)).div(_reward_ratio);\r\n                    if( invites[inviteid][0].result== invites[inviteid][1].result){\r\n                        tokenContract.transfer(invites[inviteid][0].submitter,reward);\r\n                         tokenContract.transfer(invites[inviteid][1].submitter,reward);\r\n                         emit WinnerMatched(inviteid);\r\n                    }else{\r\n                        emit WinnerNotMatched(inviteid);\r\n                    }\r\n                } \r\n        }\r\n        function get_number_of_submissions(  string memory inviteid) public whenNotPaused view returns( uint256    ){\r\n            return  invites[inviteid].length;\r\n        }\r\n   function get_submissions(  string memory inviteid,uint256 index) public whenNotPaused  view returns( address submitter,   uint8 result,string memory blockstack   ){\r\n             require (  invites[inviteid].length > index,\"invalid index\");\r\n            return ( invites[inviteid][index].submitter,invites[inviteid][index].result,invites[inviteid][index].blockstack);\r\n        }  \r\n}\r\n",
  "sourcePath": "D:/sportup-token/contracts/SportupResult.sol",
  "compiler": {
    "name": "solc",
    "version": "0.5.8+commit.23d335f2.Emscripten.clang"
  },
  "schemaVersion": "3.0.16",
  "updatedAt": "2019-12-23T20:01:28.821Z",
  "devdoc": {
    "methods": {
      "pause()": {
        "details": "Called by a pauser to pause, triggers stopped state."
      },
      "paused()": {
        "details": "Returns true if the contract is paused, and false otherwise."
      },
      "unpause()": {
        "details": "Called by a pauser to unpause, returns to normal state."
      }
    }
  },
  "userdoc": {
    "methods": {}
  }
}