{
  "contractName": "SportupResult",
  "abi": [
    {
      "constant": true,
      "inputs": [],
      "name": "tokenContract",
      "outputs": [
        {
          "name": "",
          "type": "address"
        }
      ],
      "payable": false,
      "stateMutability": "view",
      "type": "function"
    },
    {
      "inputs": [
        {
          "name": "_tokenContract",
          "type": "address"
        }
      ],
      "payable": false,
      "stateMutability": "nonpayable",
      "type": "constructor"
    },
    {
      "payable": true,
      "stateMutability": "payable",
      "type": "fallback"
    },
    {
      "anonymous": false,
      "inputs": [
        {
          "indexed": true,
          "name": "submitter",
          "type": "address"
        },
        {
          "indexed": false,
          "name": "result",
          "type": "uint8"
        },
        {
          "indexed": false,
          "name": "blockstack",
          "type": "string"
        }
      ],
      "name": "Submited",
      "type": "event"
    },
    {
      "anonymous": false,
      "inputs": [
        {
          "indexed": false,
          "name": "inviteid",
          "type": "string"
        }
      ],
      "name": "WinnerMatched",
      "type": "event"
    },
    {
      "anonymous": false,
      "inputs": [
        {
          "indexed": false,
          "name": "inviteid",
          "type": "string"
        }
      ],
      "name": "WinnerNotMatched",
      "type": "event"
    },
    {
      "anonymous": false,
      "inputs": [
        {
          "indexed": true,
          "name": "changer",
          "type": "address"
        },
        {
          "indexed": false,
          "name": "newRatio",
          "type": "uint256"
        }
      ],
      "name": "RewardRatioChanged",
      "type": "event"
    },
    {
      "constant": false,
      "inputs": [
        {
          "name": "_newRatio",
          "type": "uint256"
        }
      ],
      "name": "setRewardRatio",
      "outputs": [],
      "payable": false,
      "stateMutability": "nonpayable",
      "type": "function"
    },
    {
      "constant": true,
      "inputs": [],
      "name": "getRewardRatio",
      "outputs": [
        {
          "name": "",
          "type": "uint256"
        }
      ],
      "payable": false,
      "stateMutability": "view",
      "type": "function"
    },
    {
      "constant": false,
      "inputs": [
        {
          "name": "result",
          "type": "uint8"
        },
        {
          "name": "blockstack",
          "type": "string"
        },
        {
          "name": "inviteid",
          "type": "string"
        }
      ],
      "name": "submit",
      "outputs": [],
      "payable": false,
      "stateMutability": "nonpayable",
      "type": "function"
    },
    {
      "constant": true,
      "inputs": [
        {
          "name": "inviteid",
          "type": "string"
        }
      ],
      "name": "get_number_of_submissions",
      "outputs": [
        {
          "name": "",
          "type": "uint256"
        }
      ],
      "payable": false,
      "stateMutability": "view",
      "type": "function"
    },
    {
      "constant": true,
      "inputs": [
        {
          "name": "inviteid",
          "type": "string"
        },
        {
          "name": "index",
          "type": "uint256"
        }
      ],
      "name": "get_submissions",
      "outputs": [
        {
          "name": "submitter",
          "type": "address"
        },
        {
          "name": "result",
          "type": "uint8"
        },
        {
          "name": "blockstack",
          "type": "string"
        }
      ],
      "payable": false,
      "stateMutability": "view",
      "type": "function"
    }
  ],
  "bytecode": "0x608060405234801561001057600080fd5b506040516020806117528339810180604052602081101561003057600080fd5b8101908080519060200190929190505050600160008190555033600360006101000a81548173ffffffffffffffffffffffffffffffffffffffff021916908373ffffffffffffffffffffffffffffffffffffffff16021790555080600160006101000a81548173ffffffffffffffffffffffffffffffffffffffff021916908373ffffffffffffffffffffffffffffffffffffffff1602179055506127106002819055505061166e806100e46000396000f3fe6080604052600436106100555760003560e01c806355a373d614610057578063595807a8146100ae57806373a03c2f1461023957806397e1b4bc146103a5578063a943600d146103d0578063c342c6cf1461040b575b005b34801561006357600080fd5b5061006c6104e7565b604051808273ffffffffffffffffffffffffffffffffffffffff1673ffffffffffffffffffffffffffffffffffffffff16815260200191505060405180910390f35b3480156100ba57600080fd5b5061017e600480360360408110156100d157600080fd5b81019080803590602001906401000000008111156100ee57600080fd5b82018360208201111561010057600080fd5b8035906020019184600183028401116401000000008311171561012257600080fd5b91908080601f016020809104026020016040519081016040528093929190818152602001838380828437600081840152601f19601f8201169050808301925050505050505091929192908035906020019092919050505061050d565b604051808473ffffffffffffffffffffffffffffffffffffffff1673ffffffffffffffffffffffffffffffffffffffff1681526020018360ff1660ff16815260200180602001828103825283818151815260200191508051906020019080838360005b838110156101fc5780820151818401526020810190506101e1565b50505050905090810190601f1680156102295780820380516001836020036101000a031916815260200191505b5094505050505060405180910390f35b34801561024557600080fd5b506103a36004803603606081101561025c57600080fd5b81019080803560ff1690602001909291908035906020019064010000000081111561028657600080fd5b82018360208201111561029857600080fd5b803590602001918460018302840111640100000000831117156102ba57600080fd5b91908080601f016020809104026020016040519081016040528093929190818152602001838380828437600081840152601f19601f8201169050808301925050505050505091929192908035906020019064010000000081111561031d57600080fd5b82018360208201111561032f57600080fd5b8035906020019184600183028401116401000000008311171561035157600080fd5b91908080601f016020809104026020016040519081016040528093929190818152602001838380828437600081840152601f19601f82011690508083019250505050505050919291929050505061085a565b005b3480156103b157600080fd5b506103ba6111db565b6040518082815260200191505060405180910390f35b3480156103dc57600080fd5b50610409600480360360208110156103f357600080fd5b81019080803590602001909291905050506111e5565b005b34801561041757600080fd5b506104d16004803603602081101561042e57600080fd5b810190808035906020019064010000000081111561044b57600080fd5b82018360208201111561045d57600080fd5b8035906020019184600183028401116401000000008311171561047f57600080fd5b91908080601f016020809104026020016040519081016040528093929190818152602001838380828437600081840152601f19601f820116905080830192505050505050509192919290505050611378565b6040518082815260200191505060405180910390f35b600160009054906101000a900473ffffffffffffffffffffffffffffffffffffffff1681565b6000806060836004866040518082805190602001908083835b602083106105495780518252602082019150602081019050602083039250610526565b6001836020036101000a038019825116818451168082178552505050505050905001915050908152602001604051809103902080549050116105f3576040517f08c379a000000000000000000000000000000000000000000000000000000000815260040180806020018281038252600d8152602001807f696e76616c696420696e6465780000000000000000000000000000000000000081525060200191505060405180910390fd5b6004856040518082805190602001908083835b602083106106295780518252602082019150602081019050602083039250610606565b6001836020036101000a0380198251168184511680821785525050505050509050019150509081526020016040518091039020848154811061066757fe5b906000526020600020906002020160000160009054906101000a900473ffffffffffffffffffffffffffffffffffffffff166004866040518082805190602001908083835b602083106106cf57805182526020820191506020810190506020830392506106ac565b6001836020036101000a0380198251168184511680821785525050505050509050019150509081526020016040518091039020858154811061070d57fe5b906000526020600020906002020160000160149054906101000a900460ff166004876040518082805190602001908083835b60208310610762578051825260208201915060208101905060208303925061073f565b6001836020036101000a038019825116818451168082178552505050505050905001915050908152602001604051809103902086815481106107a057fe5b9060005260206000209060020201600101808054600181600116156101000203166002900480601f0160208091040260200160405190810160405280929190818152602001828054600181600116156101000203166002900480156108465780601f1061081b57610100808354040283529160200191610846565b820191906000526020600020905b81548152906001019060200180831161082957829003601f168201915b505050505090509250925092509250925092565b600161086582611378565b11156108d9576040517f08c379a000000000000000000000000000000000000000000000000000000000815260040180806020018281038252601a8152602001807f63616e206e6f74207375626d6974206d6f7265207468616e203200000000000081525060200191505060405180910390fd5b6108e333826113ee565b610938576040517f08c379a000000000000000000000000000000000000000000000000000000000815260040180806020018281038252602581526020018061161e6025913960400191505060405180910390fd5b6004816040518082805190602001908083835b6020831061096e578051825260208201915060208101905060208303925061094b565b6001836020036101000a038019825116818451168082178552505050505050905001915050908152602001604051809103902060405180606001604052803373ffffffffffffffffffffffffffffffffffffffff1681526020018560ff168152602001848152509080600181540180825580915050906001820390600052602060002090600202016000909192909190915060008201518160000160006101000a81548173ffffffffffffffffffffffffffffffffffffffff021916908373ffffffffffffffffffffffffffffffffffffffff16021790555060208201518160000160146101000a81548160ff021916908360ff1602179055506040820151816001019080519060200190610a84929190611578565b505050503373ffffffffffffffffffffffffffffffffffffffff167fbb35c46ff7ece5a46ec58f69c43293bcad9db50049406784b792c601a71568ff8484604051808360ff1660ff16815260200180602001828103825283818151815260200191508051906020019080838360005b83811015610b0e578082015181840152602081019050610af3565b50505050905090810190601f168015610b3b5780820380516001836020036101000a031916815260200191505b50935050505060405180910390a26002610b5482611378565b14156111d6576000610c4a600254600160009054906101000a900473ffffffffffffffffffffffffffffffffffffffff1673ffffffffffffffffffffffffffffffffffffffff166370a08231306040518263ffffffff1660e01b8152600401808273ffffffffffffffffffffffffffffffffffffffff1673ffffffffffffffffffffffffffffffffffffffff16815260200191505060206040518083038186803b158015610c0157600080fd5b505afa158015610c15573d6000803e3d6000fd5b505050506040513d6020811015610c2b57600080fd5b81019080805190602001909291905050506114e990919063ffffffff16565b90506004826040518082805190602001908083835b60208310610c825780518252602082019150602081019050602083039250610c5f565b6001836020036101000a0380198251168184511680821785525050505050509050019150509081526020016040518091039020600181548110610cc157fe5b906000526020600020906002020160000160149054906101000a900460ff1660ff166004836040518082805190602001908083835b60208310610d195780518252602082019150602081019050602083039250610cf6565b6001836020036101000a0380198251168184511680821785525050505050509050019150509081526020016040518091039020600081548110610d5857fe5b906000526020600020906002020160000160149054906101000a900460ff1660ff16141561113757600160009054906101000a900473ffffffffffffffffffffffffffffffffffffffff1673ffffffffffffffffffffffffffffffffffffffff1663a9059cbb6004846040518082805190602001908083835b60208310610df45780518252602082019150602081019050602083039250610dd1565b6001836020036101000a0380198251168184511680821785525050505050509050019150509081526020016040518091039020600081548110610e3357fe5b906000526020600020906002020160000160009054906101000a900473ffffffffffffffffffffffffffffffffffffffff16836040518363ffffffff1660e01b8152600401808373ffffffffffffffffffffffffffffffffffffffff1673ffffffffffffffffffffffffffffffffffffffff16815260200182815260200192505050602060405180830381600087803b158015610ecf57600080fd5b505af1158015610ee3573d6000803e3d6000fd5b505050506040513d6020811015610ef957600080fd5b810190808051906020019092919050505050600160009054906101000a900473ffffffffffffffffffffffffffffffffffffffff1673ffffffffffffffffffffffffffffffffffffffff1663a9059cbb6004846040518082805190602001908083835b60208310610f7f5780518252602082019150602081019050602083039250610f5c565b6001836020036101000a0380198251168184511680821785525050505050509050019150509081526020016040518091039020600181548110610fbe57fe5b906000526020600020906002020160000160009054906101000a900473ffffffffffffffffffffffffffffffffffffffff16836040518363ffffffff1660e01b8152600401808373ffffffffffffffffffffffffffffffffffffffff1673ffffffffffffffffffffffffffffffffffffffff16815260200182815260200192505050602060405180830381600087803b15801561105a57600080fd5b505af115801561106e573d6000803e3d6000fd5b505050506040513d602081101561108457600080fd5b8101908080519060200190929190505050507f58328fe4021b3c8bb896fa3a1c8b5516e7985985b30b8195112987ddec77df70826040518080602001828103825283818151815260200191508051906020019080838360005b838110156110f85780820151818401526020810190506110dd565b50505050905090810190601f1680156111255780820380516001836020036101000a031916815260200191505b509250505060405180910390a16111d4565b7fa08ec646d230e3e0cc258cbc9409da3d22e54fb3de7237615597d90cd22fe9c6826040518080602001828103825283818151815260200191508051906020019080838360005b8381101561119957808201518184015260208101905061117e565b50505050905090810190601f1680156111c65780820380516001836020036101000a031916815260200191505b509250505060405180910390a15b505b505050565b6000600254905090565b600360009054906101000a900473ffffffffffffffffffffffffffffffffffffffff1673ffffffffffffffffffffffffffffffffffffffff163373ffffffffffffffffffffffffffffffffffffffff16146112a8576040517f08c379a000000000000000000000000000000000000000000000000000000000815260040180806020018281038252600a8152602001807f41646d696e206f6e6c790000000000000000000000000000000000000000000081525060200191505060405180910390fd5b600254811415611320576040517f08c379a00000000000000000000000000000000000000000000000000000000081526004018080602001828103825260188152602001807f747279696e6720746f207365742073616d6520726174696f000000000000000081525060200191505060405180910390fd5b806002819055503373ffffffffffffffffffffffffffffffffffffffff167f026742c8bcd6a31c2a334961528522291231502d8fbc59f9a05cb0a510a3ec48826040518082815260200191505060405180910390a250565b60006004826040518082805190602001908083835b602083106113b0578051825260208201915060208101905060208303925061138d565b6001836020036101000a0380198251168184511680821785525050505050509050019150509081526020016040518091039020805490509050919050565b600060016113fb83611378565b14156114de578273ffffffffffffffffffffffffffffffffffffffff166004836040518082805190602001908083835b6020831061144e578051825260208201915060208101905060208303925061142b565b6001836020036101000a038019825116818451168082178552505050505050905001915050908152602001604051809103902060008154811061148d57fe5b906000526020600020906002020160000160009054906101000a900473ffffffffffffffffffffffffffffffffffffffff1673ffffffffffffffffffffffffffffffffffffffff16141590506114e3565b600190505b92915050565b6000808211611560576040517f08c379a000000000000000000000000000000000000000000000000000000000815260040180806020018281038252601a8152602001807f536166654d6174683a206469766973696f6e206279207a65726f00000000000081525060200191505060405180910390fd5b600082848161156b57fe5b0490508091505092915050565b828054600181600116156101000203166002900490600052602060002090601f016020900481019282601f106115b957805160ff19168380011785556115e7565b828001600101855582156115e7579182015b828111156115e65782518255916020019190600101906115cb565b5b5090506115f491906115f8565b5090565b61161a91905b808211156116165760008160009055506001016115fe565b5090565b9056fe75736572207375626d697474656420726573756c74206f6620676976656e20696e76697465a165627a7a72305820276a90aa606ddd92254c649a980f277d95c7dbbe7a02830ea81f1469f08da18b0029",
  "source": "pragma solidity ^0.5.0;\r\nimport \"./SportupToken.sol\";\r\nimport \"../node_modules/openzeppelin/contracts/math/SafeMath.sol\"; \r\nimport \"../node_modules/openzeppelin/contracts/utils/ReentrancyGuard.sol\";\r\ncontract SportupResult is ReentrancyGuard {\r\n    using SafeMath for uint256;\r\n    SportupToken public tokenContract;\r\n\r\n    struct  submitted_result {\r\n        address submitter;\r\n        uint8 result;//winner\r\n        string blockstack;\r\n    }\r\n    uint256  private _reward_ratio ;\r\n\r\n    address private admin ;\r\n    \r\n\r\n    mapping (string => submitted_result[] )private invites;\r\nmodifier onlyOwner() {\r\n        require( msg.sender==admin, \"Admin only\");\r\n        _;\r\n    }\r\n    event Submited(address indexed submitter,uint8 result, string  blockstack );\r\n    event WinnerMatched( string inviteid );\r\n    event WinnerNotMatched( string inviteid );\r\n    event RewardRatioChanged(address indexed changer,uint256 newRatio);\r\n\r\n    // The token being sold\r\n    //IERC20 private _token;\r\nfunction setRewardRatio(uint256 _newRatio) onlyOwner() public {\r\n    require(_newRatio != _reward_ratio,\"trying to set same ratio\");\r\n    _reward_ratio=_newRatio;\r\n    emit RewardRatioChanged(msg.sender,_newRatio);\r\n}\r\n   function getRewardRatio( )   public view returns (uint256){\r\n         return _reward_ratio;\r\n         }\r\n  //  constructor (uint256 rate, address payable wallet, IERC20 token) public {\r\n       constructor(SportupToken _tokenContract) public{\r\n           admin=msg.sender;\r\n          tokenContract=_tokenContract;\r\n          _reward_ratio=10000;\r\n           \r\n    }\r\n\r\n    /**\r\n     * @dev fallback function ***DO NOT OVERRIDE***\r\n     * Note that other contracts will transfer funds with a base gas stipend\r\n     * of 2300, which is not enough to call buyTokens. Consider calling\r\n     * buyTokens directly when purchasing tokens from a contract.\r\n     */\r\n    function () external payable {\r\n       // buyTokens(msg.sender);\r\n    }\r\n    function allowSubmission (address submitter,string memory inviteid) internal \r\n    returns(bool){\r\n       if (get_number_of_submissions(inviteid)==1){ return invites[inviteid][0].submitter != submitter;               } \r\n     return true;\r\n    }\r\n    \r\n     function submit( uint8 result,string memory blockstack,  string memory inviteid) public    {\r\n                require (get_number_of_submissions(inviteid)<=1,\"can not submit more than 2\") ;\r\n                // check if current address submited a result before \r\n                require(allowSubmission(msg.sender,inviteid),\"user submitted result of given invite\");\r\n                    invites[inviteid].push(submitted_result(msg.sender,result,blockstack));\r\n                   emit  Submited(msg.sender,result,blockstack);\r\n                if (get_number_of_submissions(inviteid)==2){\r\n\r\n                    uint256 reward=tokenContract.balanceOf(address(this)).div(_reward_ratio);\r\n                    if( invites[inviteid][0].result== invites[inviteid][1].result){\r\n                        tokenContract.transfer(invites[inviteid][0].submitter,reward);\r\n                         tokenContract.transfer(invites[inviteid][1].submitter,reward);\r\nemit WinnerMatched(inviteid);\r\n                    }else{\r\nemit WinnerNotMatched(inviteid);\r\n                    }\r\n                }    \r\n\r\n        }\r\n\r\n        function get_number_of_submissions(  string memory inviteid) public  view returns( uint256    ){\r\n            return  invites[inviteid].length;\r\n        }\r\n   function get_submissions(  string memory inviteid,uint256 index) public  view returns( address submitter,   uint8 result,string memory blockstack   ){\r\n             require (  invites[inviteid].length > index,\"invalid index\");\r\n            return ( invites[inviteid][index].submitter,invites[inviteid][index].result,invites[inviteid][index].blockstack);\r\n        }\r\n \r\n  \r\n}\r\n",
  "sourcePath": "D:/sportup-token/contracts/SportupResult.sol",
  "compiler": {
    "name": "solc",
    "version": "0.5.8+commit.23d335f2.Emscripten.clang"
  },
  "schemaVersion": "3.0.16",
  "updatedAt": "2019-11-08T18:11:20.856Z",
  "devdoc": {
    "methods": {}
  },
  "userdoc": {
    "methods": {}
  }
}